:020000040000fa
:080000000002040000000000f2
:020000040000fa
:10000800e0020000e0020000e0020000e002000060
:10001800e0020000e0020000e0020000e002000050
:10002800e0020000e0020000e0020000e002000040
:10003800e0020000e0020000e0020000e002000030
:1000480076690000e0020000e0020000e002000023
:10005800e0020000e0020000e0020000e002000010
:10006800e0020000e0020000e0020000e002000000
:10007800e0020000e0020000e0020000e0020000f0
:10008800e0020000e0020000e0020000e0020000e0
:10009800e0020000e0020000e0020000e0020000d0
:1000a800e0020000e0020000e0020000e0020000c0
:1000b800e0020000e0020000e0020000e0020000b0
:1000c800e0020000e0020000e0020000e0020000a0
:1000d800e0020000e0020000e0020000e002000090
:1000e800e0020000e0020000e0020000e002000080
:1000f800e0020000e0020000e0020000e002000070
:10010800e0020000e0020000e0020000e00200005f
:10011800e0020000e0020000e0020000e00200004f
:10012800e0020000e0020000e0020000e00200003f
:10013800e0020000e0020000e0020000e00200002f
:10014800e0020000e0020000e0020000e00200001f
:10015800e0020000e0020000e0020000e00200000f
:10016800e0020000e0020000e0020000e0020000ff
:10017800e0020000e0020000e0020000e0020000ef
:10018800e0020000e0020000e0020000e0020000df
:10019800e0020000e0020000e0020000e0020000cf
:1001a800e0020000e0020000e0020000e0020000bf
:1001b80088390000e0020000e0020000e0020000d0
:1001c800e0020000e0020000e0020000e00200009f
:1001d800e0020000e0020000e0020000e00200008f
:1001e800e0020000e0020000e0020000e00200007f
:0801f800e0020000e00200003b
:020000040000fa
:10020800e0020000e0020000e0020000e00200005e
:10021800e0020000e0020000e0020000e00200004e
:10022800e0020000e0020000e0020000e00200003e
:10023800e0020000e0020000e0020000e00200002e
:1002480076690000e0020000e0020000e002000021
:10025800e0020000e0020000e0020000e00200000e
:10026800e0020000e0020000e0020000e0020000fe
:10027800e0020000e0020000e0020000e0020000ee
:10028800e0020000e0020000e0020000e0020000de
:10029800e0020000e0020000e0020000e0020000ce
:1002a800e0020000e0020000e0020000e0020000be
:1002b800e0020000e0020000e0020000e0020000ae
:1002c800e0020000e0020000e0020000e00200009e
:1002d800e0020000e0020000e0020000e00200008e
:1002e800e0020000e0020000e0020000e00200007e
:1002f800e0020000e0020000e0020000e00200006e
:10030800e0020000e0020000e0020000e00200005d
:10031800e0020000e0020000e0020000e00200004d
:10032800e0020000e0020000e0020000e00200003d
:10033800e0020000e0020000e0020000e00200002d
:10034800e0020000e0020000e0020000e00200001d
:10035800e0020000e0020000e0020000e00200000d
:10036800e0020000e0020000e0020000e0020000fd
:10037800e0020000e0020000e0020000e0020000ed
:10038800e0020000e0020000e0020000e0020000dd
:10039800e0020000e0020000e0020000e0020000cd
:1003a800e0020000e0020000e0020000e0020000bd
:1003b80088390000e0020000e0020000e0020000ce
:1003c800e0020000e0020000e0020000e00200009d
:1003d800e0020000e0020000e0020000e00200008d
:1003e800e0020000e0020000e0020000e00200007d
:0803f800e0020000e002000039
:020000040000fa
:100400004f8a21000eff27000e0188000000000027
:100410000c00070000ae2600010020000f000700be
:10042000000020000000e000020032000000020096
:1004300000000000226a0200000000000040da0014
:100440000000fe00407221000000e00002003200c7
:10045000002020009001880000000600a102880012
:10046000800078000000eb001a003700e2804000b6
:1004700054a0b4009101ba00e280400054a0b4003e
:100480009102ba00e280400054a0b4000002eb00e8
:10049000472bde00f507b200a6018800602ce100c2
:1004a00008003a000049eb000201e80002003900b0
:1004b0003420ec0002f0a0008301e900f9ff3e00c7
:1004c000040037006128e100010032000082eb00e7
:1004d000040007001101ba000200e000e3ff3a0047
:1004e0000000060004d0a300e20f49001c00390000
:1004f000810278003549ba000201e80002003900a3
:100500003420ec0002f0a0008301e9000f0032006b
:100510002549ba000201e800020039003420ec004d
:1005200002f0a0008301e900080032000400e000ae
:100530000600320015c9ba000201e80002003900c5
:100540003420ec0002f0a0008301e9008180e80083
:1005500054a0b4000300e000e2ff3a0000000600ef
:100560009102ba00055978008301e900f7ff3200d3
:10057000c82ade00055978008301e900f3ff320044
:100580000400e000f1ff320011d9ba00eeff37009d
:100590005a5d040000000000845c040000000000bc
:1005a0009e5f0400000000000e64040000000000d4
:1005b000606104000000000072620400000000009e
:1005c0000040da000000fe00839f68000100e000a8
:1005d00002003d0060001000e08018000300e00011
:1005e00002003d0060011100e081190005000700d4
:1005f0004f00e00002003b0060001000e0801800a7
:10060000000006006022b800060220000000d000b2
:100610008180d2000482d2008582d2000000a00036
:100620000202520083825a0003003100020242009b
:1006300083824a000000a1000603e900f3ff3a00ac
:1006400000000600020ab900001bb9000200b80051
:10065000810042008100430000000600e48747005b
:10066000889fbe008a9fbe008c9fbe008e1f7800b0
:10067000218c200012468000e00f51000b003a0050
:10068000648140001246880062468800a1009800fc
:1006900051468800214190000204a000a240980029
:1006a000614190000204a000e2409800670440000d
:1006b0004244de004244dd00514680000002eb006f
:1006c0004e902000498a21008e845400640044002a
:1006d00080bf9f00614eb900010037008b00780099
:1006e0002140900061006000020032000a003700e3
:1006f0009308780091017800234090006100600029
:10070000fbff320008814000828f51000200390057
:10071000e00f540054003d0091057800818f550092
:10072000eeff3e008e8f550003003900208c200024
:10073000808f5500e9ff390060468000808f5000af
:100740005a003a00208c2000808f550057003a0054
:100750000402e800e10f5200e0ff36002200200012
:10076000811f7800110009008204d800cf007800b2
:10077000800f540005003600890f5400030031003b
:100780000885e8000a054500140037006142b800fa
:10079000b2ff2f00030020000c0151008d81590091
:1007a000820f5200838f5a000b003d00728a210095
:1007b0000e01510008014100809fbe001100090098
:1007c0000981d800000178004f00be000991b900ee
:1007d0000205780001003700080578000a0078005b
:1007e00076000700e10f400005003a000fbd9700ba
:1007f0000a00780071000700e10f40002b00320072
:10080000614680008008780061468000e4814000f5
:1008100021419000830f5000020032000204a0002a
:10082000010037000204a100a240980064055500b1
:100830000a0540000a0878006a468800218c2000da
:10084000010d780062468000a24090000104a000e3
:1008500021419800a04090000104a100214098008f
:100860000002eb009dff370052468800828f510046
:10087000070036001202be007446880085468800d4
:10088000110978000040eb0052468000204198009a
:100890005546800085087800214090000004a000a3
:1008a000a040980064804000010037000000eb0089
:1008b0004f0778004f06be004f05be004f04be0034
:1008c0004f00b10000000600640050005046880050
:1008d000a04090000104a100214098000000060003
:1008e000889fbe008a9fbe008004780001047800c3
:1008f000648154009205780069f9970061016100f4
:100900000200320009007800efff070008007800bd
:1009100052ff070000047800e00f54001b00320073
:10092000890f54001900320068bd97000805550072
:1009300042d5de00098055004280de000a017800c1
:10094000800f550001003600000178004211dd00e3
:100950000800be0011000700890f54000b00310091
:100960004255dd000a054400890f55000700360096
:1009700089045500c2ccde00c24cdd00890444006d
:100980007046800081468000808cbe0008007800a0
:100990004f05be004f04be00000006008001780035
:1009a00002003700b1597800040178000202e90022
:1009b000e00f5100fbff3a0000000600889fbe00d8
:1009c0008004780010488000e00f500004003a00d6
:1009d0000e0007000084eb00e00f50000800350017
:1009e00018488000e08f54000500320009004400e0
:1009f00006000700e00f500001003d000084eb00fe
:100a0000080078004f04be0000000600e00f500010
:100a100004003a00419020001148880080007800ce
:100a2000060037008080eb00428a2100820f5000d0
:100a300002003e00104888008000eb0001007800b2
:040a400000000600ac
:020000040000fa
:100a4400000000001c0000007e0000001b000000ed
:100a5400109400000100000010ca00000100000012
:100a6400110000000200000011510000020000000b
:100a740005a200000200000006bd00000200000004
:100a84000ad80000020000000b0e00000300000062
:100a94000b44000003000000107a00000300000073
:100aa40010b000000300000006e600000300000090
:100ab4000701000004000000071c000004000000ff
:100ac4000a37000004000000096d00000400000063
:100ad40005a300000400000008be0000040000009c
:100ae40005d90000040000000bf40000040000001d
:100af4000b2a0000050000000b6000000500000048
:100b04000b960000050000000bcc0000050000005f
:100b14000b020000060000000b3800000600000075
:100b24000b6e0000060000000ba40000060000008d
:100b34000bda0000060000000b10000007000000a4
:100b440005460000070000000561000007000000e2
:100b54000a7c0000070000000ab200000700000041
:100b64000ae80000070000000a1e00000800000058
:100b740013540000080000000ea500000800000047
:100b84000cdb0000080000000c110000090000004c
:100b94000e470000090000000b7d00000900000062
:100ba4000bb30000090000000de90000090000007b
:100bb4000f1f00000a000000075500000a00000093
:100bc400077000000a0000000d8b00000a000000fe
:100bd4000bc100000a00000013f700000a00000027
:100be4000f4800000b0000000e7e00000b00000008
:100bf4000cb400000b0000000eea00000b00000023
:100c04000d2000000c0000000b5600000c0000003a
:100c14000d8c00000c0000000fc200000c0000004e
:100c24000ff800000c000000142e00000d0000005e
:100c34000e7f00000d0000000eb500000d00000046
:100c44000ceb00000d000000072100000e00000066
:100c54000b3c00000e000000087200000e000000b3
:100c64000b8d00000e0000000bc300000e000000fe
:100c740007f900000e0000000b1400000f00000034
:100c84000c4a00000f0000000a8000000f00000062
:100c94000cb600000f0000000bec00000f00000079
:100ca40007220000100000000c3d000010000000ae
:100cb4000d7300001000000006a9000010000000e1
:100cc40006c40000100000000cdf0000100000004b
:100cd400061500001100000014300000110000008f
:100ce4000d810000110000000cb70000110000008d
:100cf4000ced0000110000000c23000012000000a5
:100d04000959000012000000098f000012000000c1
:100d140008c50000120000000ce0000012000000f2
:100d24000b16000013000000104c0000130000001c
:100d34000c820000130000000bb800001300000038
:100d44000aee000013000000082400001400000054
:100d5400053f000014000000085a000014000000c1
:100d64000b750000140000000000000000000000eb
:100d7400000000000030000000380000003c0000cb
:100d8400003e0000003f0000803f0000c03f000024
:100d9400e03f0000f03f0000f83f0000fc3f00008f
:100da400f83f0000f03f0000e03f0000c03f0000bb
:100db400803f0000003f0000003e0000003c0000b7
:100dc40000380000003000000000000000000000b7
:100dd400000000000000000000000000000000000f
:100de4000c0000001c0000003c0000007c0000001f
:100df400fc000000fc010000fc030000fc070000f4
:100e0400fc0f0000fc1f0000fc3f0000fc1f000062
:100e1400fc0f0000fc070000fc030000fc010000c4
:100e2400fc0000007c0000003c0000001c000000ee
:100e34000c000000000000000000000000000000a2
:100e4400000000000000000000000000000000009e
:100e5400000000000100000080030000008000008a
:100e6400030000008003000000c000000700000031
:100e7400c007000000e000000f000000e00f0000c9
:100e840000e000000f000000f01f000000f0000070
:100e94001f000000f01f000000f800003f000000e9
:100ea400f83f000000f800003f000000fc7f000055
:100eb40000fc00007f000000fc7f000000fe00003a
:100ec400ff000000feff000000fe0000ff00000025
:100ed400000000000000000000000000000000000e
:100ee40000000000000000000000000000000000fe
:100ef40000000000feff000000fe0000ff000000f4
:100f0400feff000000fc00007f000000fc7f0000ea
:100f140000fc00007f000000f83f000000f8000023
:100f24003f000000f83f000000f000001f00000038
:100f3400f01f000000f000001f000000e00f0000a0
:100f440000e000000f000000e00f000000c00000ff
:100f540007000000c007000000800000030000003c
:100f64008003000000800000030000000001000076
:100f7400000000000000000000000000000000006d
:100f8400000000000000000000000000000000005d
:100f9400000000000000000000000000000000004d
:100fa400000000000000000000000000000000003d
:100fb400000000000000000000000000000000002d
:100fc400080c00000c0c00000c0c00000c0c0000c1
:100fd4000c0c00000c0c0000040000000c0c0000c1
:100fe4000c000000000000000000000000000000f1
:100ff400000000000000000000000000cc00000021
:10100400cc000000cc000000cc000000cc000000ac
:10101400cc000000cc000000c40000000000000070
:1010240000000000000000000000000000000000bc
:1010340000000000000000000000000000000000ac
:10104400000000000000000000000000000000009c
:10105400000000000000000000000000000000008c
:10106400000000000000000000000000000000007c
:1010740000000000600200002003000020010000c6
:1010840020010000fc070000900100009000000017
:1010940098000000fe030000480000004c0000001f
:1010a4004400000064000000000000000000000094
:1010b400000000000000000000000000000000002c
:1010c400000000000000000000000000000000001c
:1010d400000000000000000060000000600000004c
:1010e400f80100006c0300006601000066000000c7
:1010f4006e0000007c000000f8010000e001000028
:10110400e0030000600300006203000062030000cb
:1011140066010000fc0000006000000060000000a8
:1011240000000000000000000000000000000000bb
:1011340000000000000000000000000000000000ab
:101144000000000000000000000000003830000033
:1011540024180000660c0000660400006606000007
:1011640066030000a40100009c380000c064000075
:10117400606600002066000010660000182400006d
:101184000c1c000000000000000000000000000033
:10119400000000000000000000000000000000004b
:1011a400000000000000000000000000000000003b
:1011b400e0010000300300001803000018030000e1
:1011c400180100009801000078000000787e0000fb
:1011d4007c1c0000cc180000c6190000861b00000f
:1011e400060f0000060e00000c1a0000f871000043
:1011f40000000000000000000000000000000000eb
:1012040000000000000000000000000000000000da
:10121400000c00000c0c00000c0c00000c0c000076
:1012240004000000000000000000000000000000b6
:1012340000000000000000000000000000000000aa
:10124400000000000060000030100000080c0000e6
:101254000c04000006060000060600000606000056
:1012640006060000040c00000c0800001830000002
:101274006000000000000000000000000306000001
:101284000c08000018180000103000003030000076
:10129400303000003030000030100000181800001a
:1012a4000804000006030000000000000000000025
:1012b40000000000003000000030000000220000a8
:1012c40001ae0000037800000078000000ae0000ca
:1012d4000122000001300000003000000000000086
:1012e40000000000000000000000000000000000fa
:1012f40000000000000000000000000000000000ea
:1013040000000000000000000000000000000000d9
:1013140000000000000000000000000000000000c9
:1013240000000000000000000000000000000000b9
:1013340000000000000000000000000000000000a9
:1013440000300000003000000030000000fe00000b
:1013540001300000003000000030000000300000c8
:101364000000000000000000000000000000000079
:101374000000000000000000000000000000000069
:101384000000000000000000000000000000000059
:101394000000000000000000000000000000000049
:1013a40000000000000000000e0f00000c0c000004
:1013b4000402000000000000000000000000000023
:1013c4000000000000000000000000000000000019
:1013d40000000000000000007e000000000000008b
:1013e40000000000000000000000000000000000f9
:1013f40000000000000000000000000000000000e9
:1014040000000000000000000000000000000000d8
:10141400000000000c0c00000c00000000000000a4
:1014240000000000000000000000000000000000b8
:101434000002000000030000000100008001000021
:101444008001000080000000c0000000c000000017
:101454006000000060000000200000003000000078
:101464003000000010000000180000001800000008
:101474000c0000000c000000040000000600000046
:101484000600000002000000000000000000000050
:101494000000000000000000000000000000000048
:1014a400000000000000000000000000f000000048
:1014b400c80100008c010000840300000603000042
:1014c40006030000060300000603000006030000f4
:1014d40006030000060100000c0100008c0000005f
:1014e4007000000000000000000000000000000088
:1014f40000000000000000000000000000000000e8
:1015040000000000000000000000000000000000d7
:1015140000000000000000006000000078000000ef
:101524006400000060000000600000006000000033
:101534006000000060000000600000006000000027
:10154400600000006000000060000000fc03000078
:101554000000000000000000000000000000000087
:101564000000000000000000000000000000000077
:101574000000000000000000000000000000000067
:101584000000000078000000c40100008601000093
:101594008201000080010000c0000000c0000000c3
:1015a400600000003000000030000000180000005f
:1015b4000c01000006010000fe0100000000000014
:1015c4000000000000000000000000000000000017
:1015d4000000000000000000000000000000000007
:1015e40000000000000000000000000000000000f7
:1015f400f8000000cc01000086010000800100001a
:101604008001000040000000f000000080010000a4
:1016140000030000000300000003000000030000ba
:1016240086010000780000000000000000000000b7
:1016340000000000000000000000000000000000a6
:101644000000000000000000000000000000000096
:10165400000000000000000000000000c0000000c6
:10166400e0000000e0000000d0000000d80000000e
:10167400c8000000c4000000c6000000c200000052
:10168400ff030000c0000000c0000000c000000014
:10169400f003000000000000000000000000000053
:1016a4000000000000000000000000000000000036
:1016b4000000000000000000000000000000000026
:1016c400000000000000000000010000fc00000019
:1016d4000400000004000000060000007e0000007a
:1016e400c2000000800100008001000080010000b1
:1016f4008001000080000000c30000003c000000e6
:1017040000000000000000000000000000000000d5
:1017140000000000000000000000000000000000c5
:1017240000000000000000000000000000000000b5
:1017340000000000800100006000000018000000ac
:10174400080000000c000000f60000008e010000fc
:101754000603000006030000060300000603000061
:101764000c0100008c010000f000000000000000eb
:101774000000000000000000000000000000000065
:101784000000000000000000000000000000000055
:101794000000000000000000000000000000000045
:1017a40000000000fc030000020100000201000030
:1017b4008001000080000000c00000004000000024
:1017c4006000000020000000300000003000000035
:1017d40018000000080000000000000000000000e5
:1017e40000000000000000000000000000000000f5
:1017f40000000000000000000000000000000000e5
:10180400000000000000000000000000f8000000dc
:10181400cc01000086010000860100008e0100005a
:10182400dc000000f0000000c80100008c03000090
:101834000603000006030000060300008c010000fc
:10184400780000000000000000000000000000001c
:101854000000000000000000000000000000000084
:101864000000000000000000000000000000000074
:101874000000000000000000f00000008c010000e7
:1018840084010000060300000603000006030000b4
:10189400060300008c030000780300000001000030
:1018a40080010000c0000000200000001c000000b7
:1018b4000000000000000000000000000000000024
:1018c4000000000000000000000000000000000014
:1018d400000000000000000000000000000c0000f8
:1018e4000c0c00000000000000000000000c0000d0
:1018f4000c0c0000000000000000000000000000cc
:1019040000000000000000000000000000000000d3
:10191400000000000c0c00000c000000000000009f
:10192400000000000e0f00000c0c00000402000078
:1019340000000000000000000000000000000000a3
:101944000000000000000000000000000000000093
:101954000000000000000000000000000000000083
:1019640000010000e00100003c000000060000004f
:101974001c000000f00000008001000000000000d6
:101984000000000000000000000000000000000053
:101994000000000000000000000000000000000043
:1019a4000000000000000000000000000000000033
:1019b4000000000000000000000000000000000023
:1019c4000000000000000000000000000000000013
:1019d40000000000fe010000000000000000000004
:1019e400fe010000000000000000000000000000f4
:1019f40000000000000000000000000000000000e3
:101a040000000000000000000000000000000000d2
:101a140000000000000000000000000000000000c2
:101a240000000000000000000000000000000000b2
:101a34000000000000000000060000003c00000060
:101a4400e001000080010000f00000001e00000022
:101a54000200000000000000000000000000000080
:101a64000000000000000000000000000000000072
:101a74000000000000000000000000000000000062
:101a84000000000000000000f8000000cc0100008d
:101a94008601000086010000800100008001000032
:101aa400c000000060000000600000003000000082
:101ab40030000000300000001000000000000000b2
:101ac4003000000030000000300000000000000082
:101ad4000000000000000000000000000000000002
:101ae40000000000000000000000000000000000f2
:101af40000000000000000000000000000000000e2
:101b040000000000000000003f000000c070000062
:101b140000300000c0000000188000000108000030
:101b2400800100000c9700000384000018030000eb
:101b34004618000003660000180300006618000041
:101b4400036600001803000066180000016e000020
:101b540098010000cc9c0000008c00007300000081
:101b6400180000000038000080000000e0e00000e1
:101b7400018000001f0000000000000000000000c1
:101b84000000000000000000000000000000000051
:101b94000000000000000000000000000000000041
:101ba4000040000000c0000000a0000000a00000f1
:101bb40001a000000110000001100000031000004b
:101bc40003f80000030800000608000006040000f3
:101bd4000c0400000c1f00001e00000000000000a8
:101be40000000000000000000000000000000000f1
:101bf40000000000000000000000000000000000e1
:101c040000000000000000000000000000fe0000d2
:101c1400008d0000030c0000030c0000030c000006
:101c2400038c000001fc0000018c0000030c000088
:101c3400070c0000060c0000060c0000060c000057
:101c440003ff00000100000000000000000000008d
:101c54000000000000000000000000000000000080
:101c64000000000000000000000000000000000070
:101c7400000000000000000000c000000730000069
:101c84000c080000000c0000000400000006000026
:101c94000006000000060000000600000006000028
:101ca400000c0000000c00000838000004e00000f4
:101cb400030000000000000000000000000000001d
:101cc4000000000000000000000000000000000010
:101cd4000000000000000000000000000000000000
:101ce4000000000000fe0000010d0000070c0000d1
:101cf4000e0c00000c0c0000180c0000180c000066
:101d0400180c0000180c0000180c0000180c00003f
:101d14000c0c00000e0c000007ff00000100000086
:101d240000000000000000000000000000000000af
:101d3400000000000000000000000000000000009f
:101d4400000000000000000000000000000000008f
:101d540000ff0000030c0000020c0000020c000055
:101d6400000c0000000c000000fc0000018c0000ce
:101d7400000c0000000c0000000c0000000c00002f
:101d8400040c000006ff0000030000000000000037
:101d9400000000000000000000000000000000003f
:101da400000000000000000000000000000000002f
:101db40000000000000000000000000000ff000020
:101dc400030c0000020c0000020c0000000c0000d8
:101dd400000c000000fc0000018c0000000c00005e
:101de400000c0000000c0000000c0000000c0000bf
:101df400003f0000000000000000000000000000a0
:101e040000000000000000000000000000000000ce
:101e140000000000000000000000000000000000be
:101e2400000000000000000000e0000003100000bb
:101e340006080000000c0000000600000006000078
:101e440000060000008600000f06000006060000e1
:101e5400060c0000060c00000618000006f0000046
:101e6400010000000000000000000000000000006d
:101e7400000000000000000000000000000000005e
:101e8400000000000000000000000000000000004e
:101e940000000000003f00007e0c0000180c000051
:101ea400180c0000180c0000180c000018fc0000ae
:101eb4001f0c0000180c0000180c0000180c000087
:101ec400180c0000180c0000183f00007e000000f1
:101ed40000000000000000000000000000000000fe
:101ee40000000000000000000000000000000000ee
:101ef40000000000003f00000c0c00000c0c00006f
:101f04000c0c00000c0c00000c0c00000c0c00006d
:101f14003f0000000000000000000000000000007e
:101f24000000000000000000000000007e18000017
:101f340018180000181800001818000018180000dd
:101f44001818000018180000180800000403000006
:101f5400000000000000000000000000000000007d
:101f6400000000000000000000000000003f00002e
:101f74000f0c0000020c0000018c0000004c00005b
:101f8400006c0000003c0000006c000000ec00004d
:101f940000cc0000008c0000010c0000030c0000c9
:101fa400063f00001c0000000000000000000000cc
:101fb400000000000000000000000000000000001d
:101fc400000000000000000000000000000000000d
:101fd4000000000000000000003f0000000c0000b2
:101fe400000c0000000c0000000c0000000c0000bd
:101ff400000c0000000c0000000c0000000c0000ad
:10200400000c0000000c0000040c000002ff0000a3
:1020140003000000000000000000000000000000b9
:1020240000000000000000000000000000000000ac
:10203400000000000000000000000000000000009c
:10204400000000000000000000000000000000008c
:10205400001e0000c00100001ce00000001c000085
:10206400e00000003cf00000002c0000d000000064
:102074006cd00000006c0000c8000000ccc8000058
:1020840000cc0000cc0000008cc50000008c0000d7
:10209400c70000000cc30000000c0000c3000000d7
:1020a4001ee100000300000000000000000000002a
:1020b400000000000000000000000000000000001c
:1020c400000000000000000000000000000000000c
:1020d40000000000000000000000000000000000fc
:1020e40000000000000000000f7e00000c1800003b
:1020f4001c1800003c1800002c1800004c180000ac
:10210400cc1800008c1900000c1900000c1b0000f6
:102114000c1e00000c1c00000c1c00003f180000ea
:1021240000000000000000000000000000000000ab
:10213400000000000000000000000000000000009b
:10214400000000000000000000000000000000008b
:1021540000000000e003000018060000080c000066
:102164000c0c0000061800000618000006180000f9
:102174000618000006180000061800000c0c0000e9
:102184000c04000018020000f00100000000000030
:10219400000000000000000000000000000000003b
:1021a400000000000000000000000000000000002b
:1021b400000000000000000000000000000000001b
:1021c400fe0100000d0300000c0600000c060000d8
:1021d4000c0600000c0600000c030000fc000000cc
:1021e4000c0000000c0000000c0000000c000000bb
:1021f4000c0000003f000000000000000000000090
:1022040000000000000000000000000000000000ca
:1022140000000000000000000000000000000000ba
:10222400000000000000000000000000e0030000c7
:1022340018060000080c00000c0c00000618000032
:102244000618000006180000061800000618000012
:10225400061800000c0c00000c0c0000180600000e
:10226400f001000000030000000600000038000038
:10227400000000000000000000000000000000005a
:10228400000000000000000000000000000000004a
:102294000000000000000000fe0100000d0300002b
:1022a4000c0600000c0600000c0600000c030000e5
:1022b400fc000000cc000000cc0000008c010000f9
:1022c4000c0300000c0300000c0600003f1c00007f
:1022d40000000000000000000000000000000000fa
:1022e40000000000000000000000000000000000ea
:1022f40000000000000000000000000000000000da
:1023040000000000f80000008c010000060000003e
:10231400060000000e0000003c000000f800000071
:10232400e00100008003000000030000020300003d
:1023340002010000860100007c0000000000000093
:102344000000000000000000000000000000000089
:102354000000000000000000000000000000000079
:102364000000000000000000000000000000000069
:10237400ff0f000061080000610800006000000019
:1023840060000000600000006000000060000000c9
:1023940060000000600000006000000060000000b9
:1023a40060000000f80100000000000000000000d0
:1023b4000000000000000000000000000000000019
:1023c4000000000000000000000000000000000009
:1023d4000000000000000000000000003f7e00003c
:1023e4000c1800000c1800000c1800000c18000059
:1023f4000c1800000c1800000c1800000c18000049
:102404000c1800000c180000180c0000380600001e
:10241400e0030000000000000000000000000000d5
:1024240000000000000000000000000000000000a8
:102434000000000000000000000000000000000098
:1024440000000000000000001f3c00000c18000009
:102454000c08000018080000180c00001804000004
:10246400300600003002000020020000600300007b
:1024740060010000c0010000c001000080000000f5
:102484000000000000000000000000000000000048
:102494000000000000000000000000000000000038
:1024a4000000000000000000000000000000000028
:1024b4000000000000000000000000000000000018
:1024c4001fc20000070c0000060100000c060000fb
:1024d400010c0000070100000c8d00000108000041
:1024e4008d0000009889000000980000980000000a
:1024f4009898000000d00000d00000007070000028
:1025040000700000700000007060000000200000f7
:102514006000000000000000000000000000000057
:1025240000000000000000000000000000000000a7
:102534000000000000000000000000000000000097
:102544000000000000000000000000000000000087
:1025540000000000003f00001f0c00000c180000e9
:10256400063800000330000001e0000001c0000054
:1025740000c0000001a000000130000003180000aa
:10258400060800000e0c00000c1f00003e000000b6
:102594000000000000000000000000000000000037
:1025a4000000000000000000000000000000000027
:1025b4000000000000000000000000000000000017
:1025c400000700003e0c00000c1800000418000076
:1025d400023000000360000001e0000001c00000c0
:1025e40000c0000000c0000000c0000000c00000e7
:1025f40000c0000000f00000030000000000000024
:1026040000000000000000000000000000000000c6
:1026140000000000000000000000000000000000b6
:1026240000000000000000000000000000fc0000aa
:1026340007040000030200000380000001c0000042
:1026440000c00000006000000070000000300000c6
:102654000018000000180000000c00000406000030
:1026640004fe00000700000000000000000000005d
:102674000000000000000000000000000000000056
:1026840000000000003e00000606000006060000f0
:102694000606000006060000060600000606000006
:1026a40006060000060600000606000006060000f6
:1026b4003e000000000000000000000000000000d8
:1026c40002000000060000000600000004000000f4
:1026d4000c000000080000001800000018000000b2
:1026e4001000000030000000300000002000000056
:1026f400600000004000000040000000c000000036
:102704008000000080010000800100000001000042
:1027140000030000000200000000000000000000b0
:1027240000000000000000003e30000030300000d7
:102734003030000030300000303000003030000015
:102744003030000030300000303000003030000005
:10275400303e000000000000000000000000000007
:102764000000000000200000006000000070000075
:1027740000d0000000d8000000880000008800009d
:10278400018c0000010400000304000003020000a7
:102794000300000000000000000000000000000032
:1027a4000000000000000000000000000000000025
:1027b4000000000000000000000000000000000015
:1027c4000000000000000000000000000000000005
:1027d40000000000000000000000000000000000f5
:1027e40000000000000000000000000000000000e5
:1027f40000000000000000000000000000000000d5
:1028040000000000000000000000000000000000c4
:1028140000000000000000000000000000fe0000b6
:1028240003000000000000000000000000000000a1
:102834000000000000000000030600000c08000077
:102844001000000000000000000000000000000074
:102854000000000000000000000000000000000074
:102864000000000000000000000000000000000064
:102874000000000000000000000000000000000054
:102884000000000000000000000000000000000044
:10289400f00000008c0100008601000080010000af
:1028a400f00100008c010000860100008601000098
:1028b400c6010000bc07000000000000000000008a
:1028c4000000000000000000000000000000000004
:1028d40000000000000000000000000000000000f4
:1028e4000c0000000e0000000c0000000c000000b2
:1028f4000c0000000c0000000c000000cc010000e3
:102904003c0300001c0700000c0600000c0600003d
:102914000c0600000c0600000c0200001c01000064
:10292400f0000000000000000000000000000000b3
:102934000000000000000000000000000000000093
:102944000000000000000000000000000000000083
:102954000000000000000000000000000000000073
:102964000000000000000000e00100001803000067
:102974000c00000006000000060000000600000035
:10298400060000000c0000001c030000f000000022
:102994000000000000000000000000000000000033
:1029a4000000000000000000000000000000000023
:1029b400000000000000000000030000c00300004d
:1029c40000030000000300000003000000030000f7
:1029d40000030000f003000088030000040300006b
:1029e40006030000060300000603000006030000bf
:1029f4000e030000cc0b00003807000000000000ac
:102a040000000000000000000000000000000000c2
:102a140000000000000000000000000000000000b2
:102a240000000000000000000000000000000000a2
:102a34000000000000000000000000000000000092
:102a4400f00000000803000004030000fe0300007f
:102a54000600000006000000060000000c00000054
:102a64001c030000f0000000000000000000000053
:102a74000000000000000000000000000000000052
:102a8400000000000000000000600000501800007a
:102a94000c0c00000c0c00007e0d00000c0c00005f
:102aa4000c0c00000c0c00000c3f000000000000a7
:102ab4000000000000000000000000000000000012
:102ac4000000000000000000000000000000000002
:102ad40000000000000000000000000000000000f2
:102ae40000f800000c8c0000030600000306000040
:102af40003060000038c000001f800000018000029
:102b0400001c000000f80000030600000e03000093
:102b14000c0300000c06000006fc0000010000008d
:102b240000000000000000000000000000000000a1
:102b3400000c0000000f0000000c0000000c00005e
:102b4400000c0000000c0000000c000000cc000091
:102b5400032c0000061c0000060c0000060c0000fc
:102b6400060c0000060c0000060c0000060c000019
:102b740006bf00001f00000000000000000000006d
:102b84000000000000000000000000000000000041
:102b94000000000000000000000000000c0c000019
:102ba40000000000000c00000f0c00000c0c0000e2
:102bb4000c0c00000c0c00003f00000000000000a2
:102bc4000000000000000000000000000000000001
:102bd400000c00000c000000000000000c0f0000be
:102be4000c0c00000c0c00000c0c00000c0c000081
:102bf4000c0c0000040200000100000000000000b2
:102c04000000000000000000000c0000000f0000a5
:102c1400000c0000000c0000000c0000000c000080
:102c2400000c0000008c0000078c000001cc0000a8
:102c3400002c0000003c0000006c000000cc0000f0
:102c4400008c0000010c0000031f00000f000000b6
:102c54000000000000000000000000000000000070
:102c64000000000000000000000000000000000060
:102c74000c0f00000c0c00000c0c00000c0c0000ed
:102c84000c0c00000c0c00000c0c00000c0c0000e0
:102c94003f000000000000000000000000000000f1
:102ca4000000000000000000000000000000000020
:102cb4000000000000000000000000000000000010
:102cc4000000000000000000000000000000000000
:102cd4000000000000000000000000008ee300007f
:102ce400016d0000160300001c0e0000030c000020
:102cf400060300000c060000030c0000060300009d
:102d04000c060000030c0000060300000c06000083
:102d140003bf0000df0f00000000000000000000ff
:102d2400000000000000000000000000000000009f
:102d3400000000000000000000000000000000008f
:102d4400000000000000000000000000000000007f
:102d5400000000000000000000000000000000006f
:102d64000000000000000000008e0000036d000061
:102d7400061c0000060c0000060c0000060c0000f7
:102d8400060c0000060c0000060c000006bf000044
:102d94001f00000000000000000000000000000010
:102da400000000000000000000000000000000001f
:102db400000000000000000000000000000000000f
:102dc40000000000000000000000000000000000ff
:102dd4000000000000f00000008800000304000070
:102de40003060000060600000606000006060000b2
:102df400060c0000021c000001f0000000000000ae
:102e040000000000000000000000000000000000be
:102e140000000000000000000000000000000000ae
:102e2400000000000000000000000000000000009e
:102e3400000000000000000000000000000000008e
:102e440000ce0000013d0000031c0000070c000040
:102e5400060c0000060c0000060c0000060c000026
:102e6400021c000003ec0000000c0000000c000039
:102e7400000c0000000c0000003f000000000000f7
:102e8400000000000000000000000000000000003e
:102e9400000000000000000000000000000000002e
:102ea40000000000000000000000000000f000002e
:102eb40002880000030c0000030600000306000063
:102ec4000306000003060000030e0000038c00004c
:102ed400037800000300000003000000030000006a
:102ee4000300000003c000000f0000000000000009
:102ef40000000000000000000000000000000000ce
:102f040000000000000000000000000000000000bd
:102f1400000000000000000000cc000001af000031
:102f2400019c0000001c0000000c0000000c0000cc
:102f3400000c0000000c0000000c0000003f00002a
:102f4400000000000000000000000000000000007d
:102f5400000000000000000000000000000000006d
:102f6400000000000000000000000000000000005d
:102f7400000000000000000000000000000000004d
:102f840000000000007c0000006600000006000055
:102f9400000e0000003c000000f0000000c0000033
:102fa40000c2000000c20000003e0000000000005b
:102fb400000000000000000000000000000000000d
:102fc40000000000000000000000000000000000fd
:102fd40000000000000800000c0c00000cfe0000c3
:102fe4000d0c00000c0c00000c0c00000c8c0000fc
:102ff4007800000000000000000000000000000055
:1030040000000000000000000000000000000000bc
:1030140000000000000000000000000000000000ac
:1030240000000000000000000c030000ce030000bc
:103034000c0300000c0300000c0300000c03000050
:103044000c0300000c030000cc0b00003807000048
:10305400000000000000000000000000000000006c
:10306400000000000000000000000000000000005c
:10307400000000000000000000000000000000004c
:10308400000000000000000000000000000000003c
:10309400000000009f070000040200000c01000073
:1030a4000c0100009801000098000000900000004e
:1030b400700000006000000020000000000000001c
:1030c40000000000000000000000000000000000fc
:1030d40000000000000000000000000000000000ec
:1030e40000000000000000000000000000000000dc
:1030f40000000000000000000000000000000000cc
:103104001ff1000004410000842300008c23000010
:10311400882600004836000058140000301c0000c7
:10312400301c000030080000000000000000000017
:10313400000000000000000000000000000000008b
:10314400000000000000000000000000000000007b
:10315400000000000000000000000000000000006b
:103164000000000000000000000000009f070000b5
:103174000c01000098000000f00000006000000056
:1031840070000000d000000088010000040300006b
:103194008f07000000000000000000000000000095
:1031a400000000000000000000000000000000001b
:1031b400000000000000000000000000000000000b
:1031c40000000000000000000000000000000000fb
:1031d40000000000000000009f070000040200003f
:1031e4000c0100000c010000980100009800000090
:1031f400900000007000000060000000600000000b
:103204002000000030000000100000000f0000004b
:1032140007000000000000000000000000000000a3
:10322400000000000000000000000000000000009a
:10323400000000000000000000000000000000008a
:1032440000000000fe01000082010000c200000036
:1032540060000000200000003000000018000000a2
:103264000c01000004010000fe0100000000000049
:10327400000000000000000000000000000000004a
:1032840000000000000000000000000040300000ca
:10329400101800001818000038300000301000002a
:1032a400081e000030300000303000001818000004
:1032b400181800003040000000000000000000006a
:1032c4000c0c00000c0c00000c0c00000c0c00009a
:1032d4000c0c00000c0c00000c0c00000c0c00008a
:1032e4000c0c00000c0c00000c0c00000c0c00007a
:1032f4000000000000000000020c0000181800008c
:10330400181800000c0c00000c0c000078100000d1
:10331400080c00000c1c000018180000180800001d
:103324000c0200000000000000000000000000008b
:103334000000000000000000000000000000000089
:103344000000000000000000000000000000000079
:103354000000000000180000047c000002f20000dd
:1033640001c2000001000000000000000000000095
:103374000000000000000000000000000000000049
:103384000000000000000000000000000000000039
:103394000000000000000000000000002285000082
:1033a40070000000720000006f0000006d0000005b
:1033b40070000000740000002000000061000000a4
:1033c4007000000070000000650000006100000053
:1033d40072000000730000002e00000000000000d6
:1033e400750000006e000000740000006900000019
:1033f4006c00000020000000740000006800000061
:10340400650000002000000063000000610000006f
:103414006c000000690000006200000072000000ff
:103424006100000074000000690000006f000000eb
:103434006e00000000000000700000007200000038
:1034440065000000730000007300000069000000c4
:103454006e00000067000000200000006f00000004
:103464006e000000200000007400000068000000ee
:1034740065000000200000007300000063000000ed
:103484007200000065000000650000006500000097
:103494006e000000000000007200000065000000e3
:1034a40073000000650000007400000020000000ac
:1034b40074000000680000006500000020000000a7
:1034c400620000006f000000610000007200000054
:1034d4006400000020000000770000006800000085
:1034e400690000006c00000065000000000000009e
:1034f400540000006f000000200000005200000093
:10350400450000005000000045000000410000009c
:10351400540000002000000063000000610000006f
:103524006c000000690000006200000072000000ee
:103534006100000074000000690000006f000000da
:103544006e0000002c00000000000000630000007a
:103554006f0000006e0000007400000069000000ad
:103564006e00000075000000650000002e000000e1
:1035740000000000540000006f000000750000000f
:1035840063000000680000002000000073000000d9
:103594006300000072000000650000006500000088
:1035a4006e00000020000000740000006f000000a6
:1035b40000000000730000006300000072000000bf
:1035c40065000000650000006e000000200000009f
:1035d40063000000610000006c000000690000004e
:1035e400620000007200000061000000740000002e
:1035f400690000006f0000006e0000002e00000053
:10360400000000005000000065000000720000008f
:10361400660000006f000000720000006d000000f2
:10362400690000006e000000670000002000000038
:10363400740000006f0000007500000063000000cb
:10364400680000000000000000010000000100000c
:103654000001000000010000ff000000ff00000066
:10366400ff000000fe000000fe000000fd0000005e
:10367400fc000000fb000000fa000000f90000005c
:10368400f8000000f7000000f6000000f50000005c
:10369400f3000000f2000000f1000000ef00000061
:1036a400ed000000ec000000ea000000e80000006b
:1036b400e6000000e4000000e2000000e00000007a
:1036c400de000000db000000d9000000d70000008d
:1036d400d4000000d2000000cf000000cc000000a5
:1036e400ca000000c7000000c4000000c1000000c0
:1036f400be000000bb000000b8000000b5000000e0
:10370400b2000000af000000ab000000a800000001
:10371400a5000000a10000009e0000009a00000027
:1037240096000000930000008f0000008b00000052
:103734008800000084000000800000007c0000007d
:103744007800000074000000700000006c000000ad
:103754006800000064000000600000005c000000dd
:1037640058000000530000004f0000004b00000010
:1037740047000000420000003e0000003a00000044
:1037840035000000310000002c000000280000007b
:10379400240000001f0000001b00000016000000b1
:1037a400120000000d0000000900000004000000e9
:1037b4000000000014f1000050000000720000003e
:1037c400650000007300000073000000200000008a
:1037d40026000000200000005200000065000000e8
:1037e4006c00000065000000610000007300000030
:1037f4006500000000000000630000006900000094
:1038040072000000630000006c000000650000000e
:10381400000000006f0000006e00000020000000a7
:103824007400000068000000650000002000000033
:1038340066000000690000006c0000006c000000dd
:10384400650000006400000000000000b02a0000d1
:103854003ed70000e9000000ffff0000bbf70000b6
:10386400ddae00003e2600009fb600007ed70000bb
:10387400ce990000020000000300000006000000d2
:0838840000010000010000003a
:020000040000fa
:10388c000200fa004487ab00020032001041200015
:10389c000100370030822000f0bf9f00e6e4a90051
:1038ac00e6c4a900ea04a900e3e4a900e3c4a90062
:1038bc00ed24a900e3a4a900e384a900e364a90012
:1038cc00e344a900e0e4a900ecc4a900f07f2e00b9
:1038dc000026b600003020000026b700f0f32f00c1
:1038ec000026b60000a6a9000086a9000046a90083
:1038fc000020200050308800300020000426b70043
:10390c0009e6a90009c6a9000986a9000946a9006b
:10391c000926a90009a6a8000906a90041308000c3
:10392c00f0f92f00008060000060a000403088009b
:10393c00f0ff23000c26b600803e2000ffb8970055
:10394c00808f500003003600f07f2c000c26b60050
:10395c0021003700ffb89700808f50001e003e00fa
:10396c00ffb99700801f7800110009000380d80070
:10397c00800178004f007800e7816100cb19dd00f1
:10398c0062308000f17f2c000101610003017100a5
:10399c00623088007fb99700811f78001100090000
:1039ac000280d80001007800cf007800e00f5000b2
:1039bc0009003200603080004b00de000040e8005f
:1039cc00670060004b00dd00623080008100610008
:1039dc0080807000613088000fe6a8001026ef0090
:1039ec0002e6ef0006a6ef0005e6a80005c6a80053
:1039fc000586a80005a6a800f09f2f000426b60097
:103a0c000506a90040062000906b02000000000093
:103a1c00003020000226b70001e6a8004006200076
:103a2c00906b0200000000000080fa00000006000d
:103a3c00000006000080fb000044880025003200d6
:103a4c00203880007f00600070001000e10f5000f3
:103a5c00fbff340020448000cf80de0002002000f9
:103a6c0003802500020070008380700014448000e5
:103a7c00cfa2de004c29dd00c421de0083017100e1
:103a8c004c21dd000200700083807000003888003b
:103a9c00113888000000000040448000cf80de0018
:103aac00020020000390250002007000838070004b
:103abc0034448000cfa2de004c29dd00c421de009e
:103acc00830171004c21dd000200700083807000c6
:103adc000c003700203880007f0060007000100060
:103aec00e10f5000fbff3400000020000180250096
:103afc00003888001138880000000000f00e2f00fc
:103b0c003191250000388800113888000000000031
:103b1c0000000600104488002144880032448800cc
:103b2c004344880000448000e00f50000100320044
:103b3c00c0ff070000000600e6874700889fbe0014
:103b4c008a9fbe008c9fbe008e1f7800bfb5970069
:103b5c002fb597001fb69700283880007f4464006b
:103b6c00fdff3a0038388000e00f5400fdff3500af
:103b7c006838800088bf9f0078388000f8b79f00b5
:103b8c008e3880009d38800060388800713888003d
:103b9c00823888009338880008002000092026000d
:103bac000802720089827200043888001538880077
:103bbc0000000000080020000930260008037300f4
:103bcc0089837300063888001738880000000000cd
:103bdc006fab9700070020004c3cdd00c434de00c6
:103bec00890474004c34dd005fab970007002000a3
:103bfc000603740087837400080020000940260027
:103c0c00080373008983730006388800173888000e
:103c1c000000000000302000800f5600020032002f
:103c2c00e00f560009003a007fab97000700200018
:103c3c0008002000096026000803730089837300c4
:103c4c00063888001738880000000000e08f550007
:103c5c00010032002b002000e00f55000100320063
:103c6c004a0020006160b8000600200007702600a2
:103c7c0006007000878070000fb3970007002000cb
:103c8c000600700087807000615ab8000400700054
:103c9c00858070006151b800020070008380700054
:103cac00003888001138880000000000203880009f
:103cbc007f406000fdff3a0030388000e00f50007c
:103ccc00fdff35000fb89700603888007fb497006f
:103cdc00783888008e3888009d38880010002000c5
:103cec004f0778004f06be004f05be004f04be00c4
:103cfc006f00b10000000600e6874700889fbe00f9
:103d0c008a9fbe008c9fbe008e1f7800bfb59700a7
:103d1c002fb597001fb69700283880007f446400a9
:103d2c00fdff3a0038388000e00f5400fdff3500ed
:103d3c006838800088bf9f0078388000f8b79f00f3
:103d4c008e3880009d38800060388800713888007b
:103d5c00823888009338880008002000092026004b
:103d6c0008027200898272000438880015388800b5
:103d7c000000000008002000093026000803730032
:103d8c00898373000638880017388800000000000b
:103d9c006fab9700070020004c3cdd00c434de0004
:103dac00890474004c34dd005fab970007002000e1
:103dbc000603740087837400080020000940260065
:103dcc00080373008983730006388800173888004d
:103ddc000000000000302000800f5600020032006e
:103dec00e00f560009003a007fab97000700200057
:103dfc000800200009602600080373008983730003
:103e0c00063888001738880000000000e08f550045
:103e1c00010032002b002000e00f550001003200a1
:103e2c004a0020006160b8000600200007702600e0
:103e3c0006007000878070000fb397000700200009
:103e4c000600700087807000615ab8000400700092
:103e5c00858070006151b800020070008380700092
:103e6c0000388800113888000000000020388000dd
:103e7c007f406000fdff3a0030388000e00f5000ba
:103e8c00fdff35000fb89700603888007fb49700ad
:103e9c00783888008e3888009d3888001000200003
:103eac004f0778004f06be004f05be004f04be0002
:103ebc006f00b100000006000000fa00889fbe00f1
:103ecc008a9fbe00283880007f446400fdff3a00c2
:103edc0038388000e00f5400fdff35006b3880004f
:103eec007a388000893880009838800060388800e3
:103efc0071388800823888009338880000002000d0
:103f0c0001202600000272008182720004388800b1
:103f1c001538880000000000000020000130260049
:103f2c0000037300818373000638880017388800fb
:103f3c00000000000fb89700010020004c09dd00c4
:103f4c00c401de00830171004c01dd007fb09700dd
:103f5c00010020000000710081807100020020002f
:103f6c000340260002007000838070000038880037
:103f7c001138880000000000000e2000017026009f
:103f8c0000388800113888000000000020388000bc
:103f9c007f406000fdff3a0030388000e00f500099
:103fac00fdff35006b3888007a3888008938880026
:103fbc0098388800100020004f05be004f04be004a
:103fcc000080fa0000000600e6874700889fbe00cc
:103fdc008a9fbe008c9fbe008e1f78000005be001d
:103fec000204be00070678003fb797008400ea0081
:103ffc000114b0000e8250000603ea0000142000e9
:10400c00060040000e00500001002000020f2000ae
:10401c0003002000f4b79f0085bf9f00220302001d
:10402c00000000000c064000e08648007fb29700bc
:10403c006120b800020f20000300200022030200c0
:10404c00000000008e1f78001fb19700821f7800bf
:10405c000001eb00821f780003062000831f78000c
:10406c0003082000831f7800821f7800821f7800cd
:10407c000c03be009fb2970005024000e08248008e
:10408c000801be000a00be001bff0700ee875700a8
:10409c00100020004f0778004f06be004f05be00f1
:1040ac004f04be006f00b10000000600ea87470015
:1040bc00889fbe008a9fbe008c9fbe008e1f78001a
:1040cc0080037800283880007f4464000003eb00f4
:1040dc0057003a00e1861300828646006181100089
:1040ec0003014100d2b79f000014200007005000cc
:1040fc00e0b79f000d075000764480008744800095
:10410c0066388800764480008744800077388800c1
:10411c0096448000a744800086388800964480002e
:10412c00a744800097388800a2388000fc7f2000cc
:10413c000c016100610cb9006170b9000300200032
:10414c00f4b79f0085bf9f0022030200000000000f
:10415c000005440081854c00060020000720260045
:10416c0006037500878375000638880017388800a9
:10417c00000000008fba97007fb29700e08f5200ca
:10418c0005003a00a23880000c016100efb19700e5
:10419c006118b90004003700a23880000c016100de
:1041ac0004005700cf80de00030020002203020031
:1041bc00000000000000440081804c00080020003a
:1041cc0009302600080070008980700000388800d3
:1041dc0011388800000000006168b900040020005c
:1041ec000540260004007000858070005fb29700c7
:1041fc006121b9004c1add00c412de008502720088
:10420c004c12dd00040070008580700000388800be
:10421c001138880000000000000e200001702600fc
:10422c0000388800113888000000000016002000bb
:10423c00060078004f0778004f06be004f05be0001
:10424c004f04be00af00b10000000600881f7800cc
:10425c00000178000104780000448000e00f500059
:10426c000c00320010448000800f510038003500e3
:10427c0030448000800f510035003c002044800009
:10428c00800f54003200350040448000800f5400f1
:10429c002f003c00f01320000200500094448000da
:1042ac00a54480008438880094448000a544800094
:1042bc009538880021388000ff806000f080100065
:1042cc00e38f5000fbff3400e44380000500200026
:1042dc00060020000760260006027200878272002a
:1042ec00043888001538880000000000cf80de00fc
:1042fc00020f200003002000220302000000000037
:10430c006141b90000004100818049000200200099
:10431c000330260002007000838070000038880093
:10432c001138880000000000100021000140260018
:10433c0000388800113888000000000000062000ba
:10434c000170260000388800113888000000000039
:10435c004f047800000006000200fa00881f780065
:10436c0000017800010478000000eb00e0bf9f0022
:10437c0011002000800f510043003500800f5400c5
:10438c0041003500f0132000800f51003e003c002e
:10439c00f30e2000830f54003b003c000200500041
:1043ac0021388000ffc06000fdff3a0031388000ea
:1043bc00e08f5000fdff35005444800065448000c0
:1043cc006438880054448000654480007538880047
:1043dc00e4805700610ab80084388800953888005a
:1043ec0021388000ff806000f0801000e38f5000c7
:1043fc00fbff3400cf80de00020f20000300200002
:10440c0022030200000000006141b90000004100dd
:10441c008180490002002000032026000200700069
:10442c00838070000038880011388800000000007c
:10443c000000200001302600003888001138880068
:10444c000000000010002100014026000038880008
:10445c001138880000000000000e200001702600ba
:10446c0000388800113888000000000020388000d7
:10447c007f406000fdff3a0030388000e00f5000b4
:10448c00fdff3500efb89700010078004f0478006d
:10449c000080fa0000000600889fbe008a9fbe00c4
:1044ac008c1f78000002780010002000820f520050
:1044bc0072003c00838f500070003c000044800070
:1044cc00e00f50001200320010448000800f5200a8
:1044dc0001003d000002780030448000800f510044
:1044ec0001003400000178002044800001047800b1
:1044fc00800f540001003d00000478004944800006
:10450c00898f510020003c00830478001e00370086
:10451c00f0132000800f52000100340000027800dc
:10452c00e00f520001003d000002eb000104780096
:10453c00f00e2000800f54000100340000047800bd
:10454c00e00f540001003d000004eb00f0132000cc
:10455c00800f51000100340000017800e00f510081
:10456c0001003d000001eb008004eb00898f51003d
:10457c000500350083047800f00e2000808f540075
:10458c00010034008004780021388000ffc06000f6
:10459c000000eb0039003a000201e800040651006b
:1045ac000014200002005000564480006744800034
:1045bc00863888005644800067448000973888000d
:1045cc00e6438000070020000a0020000b60260054
:1045dc000a0373008b837300063888001738880031
:1045ec0000000000cf80de00020f2000030020003e
:1045fc0022030200000000006141b90000004100ec
:10460c008180490002002000033026000200700067
:10461c00838070000038880011388800000000008a
:10462c006162b90000002000014026000002720007
:10463c00818272008904e80008845400cfc4de0033
:10464c004c48dd00c440de00810070004c40dd00b1
:10465c0000027200818272000438880015388800cc
:10466c0000000000000620000170260000388800c1
:10467c001138880000000000100020004f06780060
:10468c004f05be004f04be0000000600881f7800d6
:10469c00c4a2a800c0a2a9004487a800303a800098
:1046ac00f01fb20001a0270001007000303a880012
:1046bc0073fc07000004eb002838880028398800b8
:1046cc00383988004838880058388800883988007c
:1046dc00b839880098398800c8398800d8398800da
:1046ec00083888001838880022388000f1f12f0033
:1046fc0001016100000820000001710022388800cf
:10470c00223980008100610000807000203988000f
:10471c002139800080ff2f00008060000000a00085
:10472c002039880026c7a8002647a8002687a9009c
:10473c002607a80026a7a9002627a80026e7a80078
:10474c00010f2000e138880000142000f0388800a8
:10475c00a1388800b038880080112000003988000a
:10476c00601420001039880090c1b3002be7b7000b
:10477c00080078002ae7b70040c0b3002de7b70067
:10478c00080078002ce7b7002ac7bf007e40400025
:10479c002ee7b7002cc7bf00644040002fe7b700de
:1047ac002ec7bf0028e7b7002fc7bf0029e7b70007
:1047bc000000200021002000704488008144880003
:1047cc0090448800a14488005044880061448800cb
:1047dc00c8388800d13888003ea7ef002727a800ea
:1047ec00f0ff2c002427b6009080a900a080a9001f
:1047fc0005e7a80040062000906b020000000000b6
:10480c002707a800e8438800f30e2000f2132000cd
:10481c0088007800080078001fff0700526802002b
:10482c000000000040062000906b02000000000019
:10483c00084078007ffc07004f0478000000060059
:10484c00203880007f406000fdff3a000000280007
:10485c003438800000026200fdff3a0050448000b2
:10486c00614480008038880050448000614480009e
:10487c0091388800e04380000100200002002000f5
:10488c0003602600020070008380700000388800ee
:10489c001138880000000000043888000000200057
:1048ac0001302600113888000000000000142000a0
:1048bc00f140260000388800113888000000000004
:1048cc00400620000170260000388800113888004e
:1048dc0000000000203880007f406000fdff3a009f
:1048ec0030388000e00f5000fdff3500000006005e
:1048fc00ea874700889fbe008a9fbe008c9fbe003f
:10490c008e1f78000004be00820578000305780035
:10491c0000408000e00f50002e003a008b0f540036
:10492c00060032008a8f54002a003a008b0f540084
:10493c0006003c00090578000d0037008a8f5400f2
:10494c0007003c008805780009003700090578004d
:10495c00080078000b04780080057800040037000c
:10496c0088057800090078008a0478000005780032
:10497c00208020008040eb0090cf10000b00320014
:10498c008b0f540005003a000801e8000800e9000c
:10499c008a01780089007800080037008900e90056
:1049ac008a01e8000b017800030037008a017800c7
:1049bc000b0178008900780008007800b6fe07002b
:1049cc00e00f5000a50032002b4088003a408800d0
:1049dc00a10037002b4088003a4088008b0f540010
:1049ec0022003a008a8f540003003400090078003a
:1049fc008a047800000578001c0020008005eb007c
:104a0c000c0744008806e900150037008b05e80008
:104a1c0000408000808f550002003a000c00a2007c
:104a2c008005eb00e00f56000c0032000800be00c1
:104a3c0006fe07008040eb002080200090cf100085
:104a4c0006003200890078000e007800fffd070098
:104a5c00890078000d007800fcfd07008904e8004f
:104a6c00890f5500e9ff3d007b0037008a8f540009
:104a7c0022003a008b0f5400030034000800780029
:104a8c000b047800800578001c0020000005eb006a
:104a9c000c8744008906e900150037000a05e80078
:104aac0000408000800f550002003a000c00a2006c
:104abc000005eb00e00f56000c0032000800be00b1
:104acc00e2fd07008040eb002080200090cf10001a
:104adc00060032008e00780008007800dbfd07002d
:104aec008d00780008007800d8fd07000804e80065
:104afc00888f5500e9ff3d00570037008885550029
:104b0c001e00200002003b008b05ea000087eb0032
:104b1c00090555001000200080bf9f0003003b00da
:104b2c000a05ea008080eb0081bf9f008a8f550048
:104b3c000e003d000800be00c4fd07000e0078000a
:104b4c000fbf970080bf9f000b0078008a0578008c
:104b5c0000057800080078000904780080047800cb
:104b6c0010002000f0b79f00040037000800be00c2
:104b7c00b6fd07008000eb00f1b79f000b804500ed
:104b8c00d0b79f000a054500eab79f000b065500f9
:104b9c001a0020008006eb002d003700e00f5600b5
:104bac00040035008fb89700818444005fb09700f3
:104bbc00000656000e044400efb0970001064600b4
:104bcc008d06e80000408000808f560002003a00fd
:104bdc000a00a2008006eb00e00f55001c0032001a
:104bec007fb09700e00f50000d0032008800780075
:104bfc000900780095fd07000040eb0021802000a3
:104c0c00914f1000120032000900e8008800780073
:104c1c008efd07000900e900880078000b003700c2
:104c2c000800be0089fd07000040eb002180200039
:104c3c00914f1000060032008900e800080078004f
:104c4c0082fd07008900e900080078007ffd07005d
:104c5c008b05e900d1ff3b00100020004f077800c6
:104c6c004f06be004f05be004f04be00af00b100a2
:104c7c00000006008000eb00908f10000c003a0042
:104c8c000080e8001000be0064004000e080480096
:104c9c009201800000f0a4008180d2009101880074
:104cac001000780092018800800078000100370025
:104cbc008000eb0001007800000006008000eb0093
:104ccc00908f10000c003a000080e8001000be002d
:104cdc0062004000e08048009201800000f0a400d7
:104cec008180d20091018800100078009201880028
:104cfc0080007800010037008000eb000100780094
:104d0c00000006000f2ab000889fbe008a9fbe00dc
:104d1c008c9fbe008e1f780000077800c4e79f00b0
:104d2c0062014100e08149009a0180000203780091
:104d3c0006f0a4008383d200970188001606780041
:104d4c009a01880062014100e081490096018000cf
:104d5c000204780008f0a4008384d2009901880032
:104d6c00180478009601880062014100e081490036
:104d7c009a0180000203780006f0a4008383d2001d
:104d8c009701880016007800d0af9f009a01880028
:104d9c0062014100e08149009a0180000203780021
:104dac0006f0a4008383d2009701880016007800d7
:104dbc00c0af9f009a01880062014100e081490068
:104dcc00670564000a05ea004f55de00c343de00a8
:104ddc0087034500f7af9f0015057800e00f5500dd
:104dec0003003a009cb79f000a4278000f0037007e
:104dfc00350690007fa897000c86b9006163b80057
:104e0c00060141008781490025069000c3e3de00be
:104e1c00613bb90006014100878149009502900071
:104e2c0095b79f00674266000a0478004fe0970030
:104e3c00e24f500001003a00080444000514200021
:104e4c00850f540003003e008e034400858f5300f1
:104e5c0002003600081420000e0454002038800094
:104e6c007f406000fdff3a000700280035388000c5
:104e7c0087826200fdff3a0040d52f000f004000f2
:104e8c006103b80066388800773888005a4480007f
:104e9c006b4480008a3888005a4480006b44800040
:104eac009b388800053888000a0020000b2026005b
:104ebc001b38880000000000b1b79f00f5132000dc
:104ecc008e825200850f5400040036000514200019
:104edc008e82520085b79f000100370088b79f0073
:104eec000200be000001eb00c2b79f000fe9970063
:104efc008801e900e3af9f00cfe197000304a20013
:104f0c008381fb008301ea00cf19de00b3af9f0061
:104f1c000b1420000e8755000804570009002000d0
:104f2c0082467800044778000002be007200370009
:104f3c00e04f57000d003200920180000400780011
:104f4c0000f0a4008580d200910188009046780082
:104f5c009201880061054200e0854a000e81fb0049
:104f6c00110020008209dd00020037000405be009c
:104f7c008e4178006fa897008000400042d52f002a
:104f8c000f01410081034100203880007f40600008
:104f9c00fdff3a000200280036388000020363004f
:104fac00fdff3a000601780017003700e0cf5100f2
:104fbc000a003a00930180000a00780000f0a40077
:104fcc008b80d20091018800904678009301880074
:104fdc0061054500e0854d0013c0b3000dc06100b4
:104fec0002003a00dfa8970001003700cfa8970015
:104ffc00811378000201e8003fa89700800061004f
:10500c0001003a0083c141008fb09700810f51001d
:10501c00e6ff39006113b8000200210003402600ae
:10502c0002017300838173000238880013388800f2
:10503c00000000000046eb00260e20000770260042
:10504c000e417800c2d79f000d477800bfb697007d
:10505c001c003700616db800020f20000300200017
:10506c000800be00f4b79f0085bf9f00d6b79f0015
:10507c00e7b79f0022030200000000000a00400076
:10508c008b804800020020000330260002007000d4
:10509c008380700000388800113888000000000000
:1050ac005fb39700efb39700063888001738880075
:1050bc00000000008d06e8000c46e8008fba97004f
:1050cc007fb29700cfe19700834f5600e1ff390084
:1050dc00bdb79f008e4678004fd797007fa89700ea
:1050ec006101b8000202420083824a00cfb09700ef
:1050fc008100e800c1b79f004fb197009fb19700a6
:10510c00830f510004003100f10e20003fb09700d6
:10511c00810f500086ff3600203880007f406000f1
:10512c00fdff3a0030388000e00f5000fdff3500e5
:10513c004f0778004f06be004f05be004f04be005f
:10514c00ef1fb1002f0ab10000000600cf2bb000fa
:10515c00889fbe008a9fbe008c9fbe008e1f780069
:10516c00a4ef9f00e14f52000200320034c0b300a4
:10517c00010037002fea9700e4df9f006201410035
:10518c00e0814900980180000203780006f0a40039
:10519c008383d20097018800160678009801880056
:1051ac0062014100e081490098018000020378000f
:1051bc0006f0a4008383d2009701880016057800be
:1051cc00980188008a03780062014100e08149005f
:1051dc000003eb00850678000604430085d32f00fe
:1051ec008f824200088442009b01800002027800fa
:1051fc0004f0a4008382d200950188001402780088
:10520c009b018800040c780062014100e081490098
:10521c000603e800ef0f5300efff36008d02780015
:10522c000a03d100610565000a054300eaaf9f003f
:10523c0015057800e00f550003003a009cb79f005d
:10524c000a0478000f003700250390003504900005
:10525c006faa970008a4b9000900200008014100ba
:10526c0089814900610463000603d1000700200016
:10527c0006014100878149009502900095b79f0077
:10528c008a034400afea9700e2cf520002003a00d2
:10529c000782430001003700070278000514200044
:1052ac00850f520003003e0000064200850f560099
:1052bc000200360007142000008253000203be00d7
:1052cc0023388000ffc16100fdff3a000601be00db
:1052dc000c002800353880008c826200fdff3a00fb
:1052ec008cd52f000f0646006163b8006638880025
:1052fc00773888005a4480006b4480008a388800d4
:10530c005a4480006b4480009b3888000538880024
:10531c000a0020000b2026001b388800000000002b
:10532c0081037800f513200080825200850f520013
:10533c0004003600051420008082520085b79f00bf
:10534c000100370084b79f00fa825700828abe00a2
:10535c008040eb000001eb00a2b79f00afe9970083
:10536c008381fb00d3af9f0003c4b900880278008f
:10537c00c5af9f00008052000014b0000400500024
:10538c006104b80087067800014778006500370093
:10539c008400e9008180400080d52f000f00400080
:1053ac0081034000203880007f406000fdff3a0000
:1053bc00030028003238800003016100fdff3a0031
:1053cc00fa8057001105be00efd997000303fb00cc
:1053dc005fa897008002e9000e40780017003700a4
:1053ec008600610009003a00930180000a007800f1
:1053fc0000f0a4008b80d20091018800104078004e
:10540c009301880061054500e0854d008081fb001b
:10541c008510de00e1806000c208dd008198de00ae
:10542c00ef8060008180400083d32f008f8141008a
:10543c00e3807800811378000201e8008fb09700b8
:10544c00810f5100e6ff390000477800cfa9970083
:10545c00030151006113b800020021000340260033
:10546c0002017300838173000238880013388800ae
:10547c00000000000046eb00260e200007702600fe
:10548c001a003700616db800020f200003002000e5
:10549c000800be0084bf9f00e6b79f00f7b79f00cf
:1054ac0022030200000000000a0040008b8048002c
:1054bc000200200003302600020070008380700080
:1054cc000038880011388800000000006fb3970086
:1054dc00ffb39700063888001738880000000000da
:1054ec008d06e8000c46e8000fba9700afe997006c
:1054fc00834f5600e3ff3900efaa97006129b800eb
:10550c007a8057001000be000200400083804800e3
:10551c00fa825700808abe00afb097008100e80085
:10552c00a1b79f002fb197009fb19700830f510037
:10553c0003003100f10e2000818f560094ff3600dd
:10554c00203880007f406000fdff3a00303880003a
:10555c00e00f5000fdff35004f0778004f06be00ee
:10556c004f05be004f04be00ef1fb100ef0bb100a2
:10557c0000000600cf3fb0006f09b000889fbe004e
:10558c008a9fbe008c9fbe008e1f78000447780057
:10559c0062014100e081490098018000020378001b
:1055ac0006f0a4008383d2009701880016067800c9
:1055bc009801880062014100e08149009801800057
:1055cc000203780006f0a4008383d20097018800c0
:1055dc00160578009801880062014100e0814900bd
:1055ec000003eb00f70f200085067800060443004b
:1055fc0024b62f000f024200080442009b018000d9
:10560c000202780004f0a4008382d2009501880085
:10561c00140278009b018800040c780062014100a0
:10562c00e08149000603e800870f5300efff3600c6
:10563c008d02780015047800e00f540003003a0046
:10564c00bcb79f000a0478000b00370035039000ac
:10565c0006d3b900070020000601410087814900ec
:10566c0025039000cfb3de0006014100878149007d
:10567c0095029000b5b79f00e24f570001003a0029
:10568c000804440005142000850f540003003e005c
:10569c0080034400858f530002003600081420005c
:1056ac00000454000202be0023388000ffc16100d8
:1056bc00fdff3a000401be000700280035388000c9
:1056cc0087826200fdff3a0027d62f008f834300ac
:1056dc00613bb80066388800773888005c448000ed
:1056ec006d4480008c3888005c4480006d448000e0
:1056fc009d388800053888000c0020000d202600fd
:10570c001d3888000000000001027800f51320000d
:10571c0080825200850f54000300360005142000cf
:10572c00808652000100370088067800f880570008
:10573c008288be000003eb008801e90083814100f0
:10574c0022d62f000f0141008303410005142000d5
:10575c000080520008045000090020006150b8007d
:10576c0090b79f00a1b79f005700370087027800c1
:10577c00203880007f406000fdff3a0001002800c7
:10578c003038800001006000fdff3a00f8805700bf
:10579c001105be0019003700910180000a01780044
:1057ac0002f0a4008b81d200930188001241780092
:1057bc009101880061054500e0854d00e24f5700de
:1057cc0007003a008280fb008180400023b62f0046
:1057dc008f814100e3807800811278000000e8009e
:1057ec000281fb000201410021b62f008f80400096
:1057fc0061017900821278000000e8008d0f5000e2
:10580c00e5ff3900010020000200210003402600c2
:10581c000200700083807000003888001138880006
:10582c00000000000046eb001c0037006125b800aa
:10583c00020f2000030020000800be0084bf9f0060
:10584c00f6b79f00e7b79f0022030200000000009c
:10585c000a0040008b804800020020000330260024
:10586c0002007000838070000038880011388800b6
:10587c0000000000230e2000033888000070260072
:10588c0010388800000000000fba97000402e800ee
:10589c000c46e800efb397007fb397008e4f56008d
:1058ac00e2ff3900788157001201be007e8057005c
:1058bc001000be000001410081814900f8805700b2
:1058cc008288be000603e800bfb09700810f53002a
:1058dc0003003100f00e2000800f5200a3ff3600b1
:1058ec00203880007f406000fdff3a003038800097
:1058fc00e00f5000fdff35004f0778004f06be004b
:10590c004f05be004f04be00ef1fb100ef1fb100ea
:10591c006f09b100000006006f29b000889fbe001f
:10592c008a9fbe008c9fbe008e1f780004477800b3
:10593c0062014100e0814900980180000203780077
:10594c0006f0a4008383d200970188001606780025
:10595c009801880062014100e081490098018000b3
:10596c000203780006f0a4008383d200970188001c
:10597c00160578009801880062014100e081490019
:10598c0015047800e00f540003003a00bcb79f00e8
:10599c000a0478000f0037003503900006d3b900d5
:1059ac00070020000603430087834b0006014100db
:1059bc008781490025039000cfb3de000603430026
:1059cc0087834b00060141008781490095029000b6
:1059dc00b5b79f00e24f570001003a00080444009d
:1059ec0005142000850f540003003e008003440082
:1059fc00858f530002003600081420000004540068
:105a0c000202be0023388000ffc16100fdff3a0096
:105a1c000401be0007002800353880008782620030
:105a2c00fdff3a00e4d52f000f0242006123b800bd
:105a3c0066388800773888005c4480006d448000ac
:105a4c008c3888005c4480006d4480009d38880050
:105a5c00053888000c0020000d2026001d38880019
:105a6c0000000000f513200080825200850f5400c6
:105a7c00040036000514200080825200a5b79f0058
:105a8c0001003700a8b79f0001027800f88057008a
:105a9c008288be008006eb008801e900838141000a
:105aac00e2d52f000f0141000301410092b79f0086
